:100000000C9462000C948A000C948A000C948A0070
:100010000C948A000C948A000C948A000C948A0038
:100020000C948A000C948A000C948A000C948A0028
:100030000C948A000C948A000C948A000C948A0018
:100040000C9470030C948A000C943E030C941803D7
:100050000C948A000C948A000C948A000C948A00F8
:100060000C948A000C948A000000000024002700F1
:100070002A0000000000250028002B0000000000DE
:1000800023002600290004040404040404040202DA
:100090000202020203030303030301020408102007
:1000A0004080010204081020010204081020000012
:1000B0000008000201000003040700000000000027
:1000C0000000620511241FBECFEFD8E0DEBFCDBF18
:1000D00011E0A0E0B1E0EEE2FBE002C005900D927D
:1000E000A233B107D9F726E0A2E3B1E001C01D9227
:1000F000A63AB207E1F710E0C2E6D0E004C02197CB
:10010000FE010E948F05C136D107C9F70E94BA03CC
:100110000C9495050C940000AF92BF92CF92DF92A1
:10012000EF92FF920F931F93CF93DF936C017B01AC
:100130008B01040F151FEB015E01AE18BF08C0173D
:10014000D10759F06991D601ED91FC910190F081B0
:10015000E02DC6010995892B79F7C501DF91CF9173
:100160001F910F91FF90EF90DF90CF90BF90AF90D5
:100170000895FC01538D448D252F30E0842F90E0AD
:10018000821B930B541710F0CF9608950197089592
:10019000FC01918D828D981761F0A28DAE0FBF2F5B
:1001A000B11D5D968C91928D9F5F9F73928F90E0B1
:1001B00008958FEF9FEF0895FC01918D828D981720
:1001C00031F0828DE80FF11D858D90E008958FEF5D
:1001D0009FEF0895FC01918D228D892F90E0805C26
:1001E0009F4F821B91098F73992708958DE391E0AA
:1001F0000E94EA0021E0892B09F420E0822F089573
:1002000080E090E0892B29F00E94F60081110C9487
:1002100000000895FC01A48DA80FB92FB11DA35AA9
:10022000BF4F2C91848D90E001968F739927848F16
:10023000A689B7892C93A089B1898C918370806439
:100240008C93938D848D981306C00288F389E02DDA
:1002500080818F7D80830895EF92FF920F931F938B
:10026000CF93DF93EC0181E0888F9B8D8C8D981369
:100270001AC0E889F989808185FF15C09FB7F89475
:10028000EE89FF896083E889F989808183708064C1
:1002900080839FBF81E090E0DF91CF911F910F910C
:1002A000FF90EF900895F62E0B8D10E00F5F1F4F1B
:1002B0000F731127E02E8C8D8E110CC00FB607FC2A
:1002C000FACFE889F989808185FFF5CFCE010E94B8
:1002D0000A01F1CFEB8DEC0FFD2FF11DE35AFF4F1B
:1002E000F0829FB7F8940B8FEA89FB898081806246
:1002F000CFCFCF93DF93EC01888D8823B9F0AA8903
:10030000BB89E889F9898C9185FD03C0808186FDD0
:100310000DC00FB607FCF7CF8C9185FFF2CF80811F
:1003200085FFEDCFCE010E940A01E9CFDF91CF9189
:100330000895833081F028F4813099F08230A9F05B
:1003400008958730A9F08830C9F08430B1F48091E5
:1003500080008F7D03C0809180008F778093800024
:10036000089584B58F7784BD089584B58F7DFBCFC4
:100370008091B0008F778093B00008958091B00095
:100380008F7DF9CF1F93CF93DF93282F30E0F901B2
:10039000E255FF4F8491F901E656FF4FD491F901E0
:1003A000EA57FF4FC491CC23A9F0162F81110E9468
:1003B0009901EC2FF0E0EE0FFF1FEE58FF4FA591D3
:1003C000B4918FB7F894EC91111108C0D095DE2349
:1003D000DC938FBFDF91CF911F910895DE2BF8CF73
:1003E000CF93DF9390E0FC01E656FF4F24918A57AC
:1003F0009F4FFC0184918823D1F090E0880F991FD2
:10040000FC01E859FF4FA591B491FC01EE58FF4F54
:10041000C591D491623071F49FB7F8943C91822FCA
:10042000809583238C93E8812E2B28839FBFDF91B7
:10043000CF9108958FB7F894EC912E2B2C938FBF0A
:10044000F6CF1F93CF93DF93182FEB0161E00E944B
:10045000F001209739F460E0812FDF91CF911F9157
:100460000C94C201CF3FD10511F461E0F5CFE12F2B
:10047000F0E0E255FF4FE491E33031F140F4E13038
:10048000B1F0E230E1F0C038D1057CF7E4CFE730DD
:1004900029F1E83059F1E430B1F7809180008062B1
:1004A00080938000D0938B00C0938A0004C084B5F1
:1004B000806884BDC7BDDF91CF911F91089584B539
:1004C000806284BDC8BDF7CF809180008068809332
:1004D0008000D0938900C0938800EDCF8091B00058
:1004E00080688093B000C093B300E5CF8091B000E6
:1004F00080628093B000C093B400DDCF8E3008F0EE
:100500008E508770806480937C0080917A00806434
:1005100080937A0080917A0086FDFCCF80917800EC
:100520009091790008953FB7F894809139019091A6
:100530003A01A0913B01B0913C0126B5A89B05C0B2
:100540002F3F19F00196A11DB11D3FBFBA2FA92F52
:10055000982F8827BC01CD01620F711D811D911D4F
:1005600042E0660F771F881F991F4A95D1F70895BB
:100570000F931F93CF93DF938C01EC01CC0FDD1F02
:10058000FE01E252FE4F808191818436910581F413
:100590004FE050E06FE171E08DE391E00E948C004C
:1005A00042E050E06FE271E08DE391E00E948C0048
:1005B000DE01AE5CBE4F8D919C9111972FB7F894E0
:1005C0004091DA015091DB016091DC017091DD0115
:1005D0002FBFFC01EE0FFF1FE80FF91FE00FF11F07
:1005E000EE0FFF1FEE0FFF1FE151FE4F40835183BF
:1005F00062837383F801E451FE4F81E080838D9123
:100600009C911197019611969C938E93C252DE4F46
:10061000288139812F5F3F4F3983288384369105A4
:1006200011F41D921C92DF91CF911F910F910895AB
:100630001F920F920FB60F9211242F933F934F9357
:100640005F936F937F938F939F93AF93BF93EF933A
:10065000FF938DE391E00E940A01FF91EF91BF911A
:10066000AF919F918F917F916F915F914F913F914A
:100670002F910F900FBE0F901F9018951F920F9201
:100680000FB60F9211242F938F939F93EF93FF93A5
:10069000E0914D01F0914E018081E0915301F09184
:1006A000540182FD1BC09081809156018F5F8F7332
:1006B00020915701821741F0E0915601F0E0E35C90
:1006C000FE4F958F80935601FF91EF919F918F91EF
:1006D0002F910F900FBE0F901F9018958081F4CF2F
:1006E0001F920F920FB60F9211242F933F938F9367
:1006F0009F93AF93BF938091DA019091DB01A0911A
:10070000DC01B091DD013091380123E0230F2D375A
:1007100058F50196A11DB11D209338018093DA018F
:100720009093DB01A093DC01B093DD01809139014E
:1007300090913A01A0913B01B0913C010196A11D1D
:10074000B11D8093390190933A01A0933B01B0937E
:100750003C01BF91AF919F918F913F912F910F904D
:100760000FBE0F901F90189526E8230F0296A11D2B
:10077000B11DD2CF789484B5826084BD84B5816088
:1007800084BD85B5826085BD85B5816085BD80915C
:100790006E00816080936E001092810080918100D4
:1007A00082608093810080918100816080938100CC
:1007B000809180008160809380008091B10084608E
:1007C0008093B1008091B00081608093B0008091EF
:1007D0007A00846080937A0080917A0082608093AE
:1007E0007A0080917A00816080937A0080917A000B
:1007F000806880937A001092C100E0914D01F091E1
:100800004E0182E08083E0914901F0914A0110821B
:10081000E0914B01F0914C018FEC808310925501D7
:10082000E0915101F091520186E08083E0914F0107
:10083000F0915001808180618083E0914F01F091BF
:100840005001808188608083E0914F01F0915001D8
:10085000808180688083E0914F01F0915001808118
:100860008F7D808362E08CE00E94F00161E083E094
:100870000E94F00161E085E00E94F00161E086E005
:100880000E94F0018FEF90E09093E5018093E401E6
:10089000EAEB2E2EE0E03E2EF6EA4F2EF0E05F2E41
:1008A000A2E96A2EA0E07A2EF1018491F201D4919E
:1008B000F301C491CC2379F081110E949901EC2FAE
:1008C000F0E0EE0FFF1FE458FF4FA591B4918C911B
:1008D000D82381E009F480E081708093A50680E050
:1008E0000E947E02909302018093010181E00E94A8
:1008F0007E02909304018093030182E00E947E02B5
:1009000090930601809305010FE916E061E0C62E81
:1009100061E0D62ED0E0C0E0D6018D919D916D01B1
:10092000F80120813181F901EE0FFF1FE20FF31F63
:10093000EC0FFD1FEE0FFF1FEE0FFF1FE151FE4FEB
:10094000092E000CAA0BBB0B40815181628173817F
:10095000840F951FA61FB71F2FB7F8944091DA0197
:100960005091DB016091DC017091DD012FBF841794
:100970009507A607B70708F041C0CE0184519E4FE6
:100980005C01DC018C918823C9F18C2F0E947E02CE
:100990007E01EE0CFF1C0B977CF06091E4017091DE
:1009A000E501F701EA51FE4F71836083F701E75ECD
:1009B000FE4F80810E942102F701E252FE4F8081AA
:1009C0009181019791838083F801208131812F5F8C
:1009D0003F4F2436310509F472C031832083892BBF
:1009E00011F4F501108281E090E0209729F0C130E8
:1009F000D10521F482E090E00E94B80221960E5FBA
:100A00001F4FC330D10509F087CF8091A506909183
:100A10000001891731F0811104C090E080E00E944C
:100A2000B8028091A50680930001C6EED1E009E1ED
:100A300011E0FE0188819981009719F0419799830F
:100A400088832296D8018C910E5F1F4F608171813F
:100A50000E942102B1E0CC3EDB0759F70E949302CD
:100A60004B015C018AE0C82ED12CE12CF12C0E94B4
:100A70009302681979098A099B09683E73408105C8
:100A80009105A8F3E1E0CE1AD108E108F108F8EEEB
:100A90008F0EF3E09F1EA11CB11CC114D104E10410
:100AA000F10429F780E090E0892B09F4FDCE0E9443
:100AB000F600882309F4F8CE0E940000F5CE1182DA
:100AC00010828DCFEDE3F1E01382128288EE93E085
:100AD000A0E0B0E084839583A683B7838BE091E0A8
:100AE0009183808385EC90E09587848784EC90E007
:100AF0009787868780EC90E0918B808B81EC90E0EB
:100B0000938B828B82EC90E0958B848B86EC90E0CB
:100B1000978B868B118E128E138E148E0895EE0F86
:0E0B2000FF1F0590F491E02D0994F894FFCF8B
:100B2E0001E803E803DC05000000002C018C00B98D
:100B3E00007901EA00C800DC00030005000600424F
:100B4E0075666665722069732066756C6C21000D82
:020B5E000A008B
:00000001FF
