:100000000C9462000C948A000C948A000C948A0070
:100010000C948A000C948A000C948A000C948A0038
:100020000C948A000C948A000C948A000C948A0028
:100030000C948A000C948A000C948A000C948A0018
:100040000C94F3030C948A000C94C1030C949B034E
:100050000C948A000C948A000C948A000C948A00F8
:100060000C948A000C948A000000000024002700F1
:100070002A0000000000250028002B0000000000DE
:1000800023002600290004040404040404040202DA
:100090000202020203030303030301020408102007
:1000A0004080010204081020010204081020000012
:1000B0000008000201000003040700000000000027
:1000C0000000410711241FBECFEFD8E0DEBFCDBF37
:1000D00011E0A0E0B1E0E0E3FFE002C005900D9286
:1000E000A63CB107D9F727E0A6ECB1E001C01D920C
:1000F000A034B207E1F710E0C2E6D0E004C02197D7
:10010000FE010E949007C136D107C9F70E943D0445
:100110000C9496070C940000AF92BF92CF92DF929E
:10012000EF92FF920F931F93CF93DF936C017B01AC
:100130008B01040F151FEB015E01AE18BF08C0173D
:10014000D10759F06991D601ED91FC910190F081B0
:10015000E02DC6010995892B79F7C501DF91CF9173
:100160001F910F91FF90EF90DF90CF90BF90AF90D5
:100170000895FC01538D448D252F30E0842F90E0AD
:10018000821B930B541710F0CF9608950197089592
:10019000FC01918D828D981761F0A28DAE0FBF2F5B
:1001A000B11D5D968C91928D9F5F9F73928F90E0B1
:1001B00008958FEF9FEF0895FC01918D828D981720
:1001C00031F0828DE80FF11D858D90E008958FEF5D
:1001D0009FEF0895FC01918D228D892F90E0805C26
:1001E0009F4F821B91098F739927089583EA96E0A8
:1001F0000E94EA0021E0892B09F420E0822F089573
:1002000080E090E0892B29F00E94F60081110C9487
:1002100000000895FC01A48DA80FB92FB11DA35AA9
:10022000BF4F2C91848D90E001968F739927848F16
:10023000A689B7892C93A089B1898C918370806439
:100240008C93938D848D981306C00288F389E02DDA
:1002500080818F7D80830895EF92FF920F931F938B
:10026000CF93DF93EC0181E0888F9B8D8C8D981369
:100270001AC0E889F989808185FF15C09FB7F89475
:10028000EE89FF896083E889F989808183708064C1
:1002900080839FBF81E090E0DF91CF911F910F910C
:1002A000FF90EF900895F62E0B8D10E00F5F1F4F1B
:1002B0000F731127E02E8C8D8E110CC00FB607FC2A
:1002C000FACFE889F989808185FFF5CFCE010E94B8
:1002D0000A01F1CFEB8DEC0FFD2FF11DE35AFF4F1B
:1002E000F0829FB7F8940B8FEA89FB898081806246
:1002F000CFCFCF93DF93EC01888D8823B9F0AA8903
:10030000BB89E889F9898C9185FD03C0808186FDD0
:100310000DC00FB607FCF7CF8C9185FFF2CF80811F
:1003200085FFEDCFCE010E940A01E9CFDF91CF9189
:100330000895833081F028F4813099F08230A9F05B
:1003400008958730A9F08830C9F08430B1F48091E5
:1003500080008F7D03C0809180008F778093800024
:10036000089584B58F7784BD089584B58F7DFBCFC4
:100370008091B0008F778093B00008958091B00095
:100380008F7DF9CF1F93CF93DF93282F30E0F901B2
:10039000E255FF4F8491F901E656FF4FD491F901E0
:1003A000EA57FF4FC491CC23A9F0162F81110E9468
:1003B0009901EC2FF0E0EE0FFF1FEE58FF4FA591D3
:1003C000B4918FB7F894EC91111108C0D095DE2349
:1003D000DC938FBFDF91CF911F910895DE2BF8CF73
:1003E000CF93DF9390E0FC01E656FF4F24918A57AC
:1003F0009F4FFC0184918823D1F090E0880F991FD2
:10040000FC01E859FF4FA591B491FC01EE58FF4F54
:10041000C591D491623071F49FB7F8943C91822FCA
:10042000809583238C93E8812E2B28839FBFDF91B7
:10043000CF9108958FB7F894EC912E2B2C938FBF0A
:10044000F6CF1F93CF93DF93182FEB0161E00E944B
:10045000F001209739F460E0812FDF91CF911F9157
:100460000C94C201CF3FD10511F461E0F5CFE12F2B
:10047000F0E0E255FF4FE491E33031F140F4E13038
:10048000B1F0E230E1F0C038D1057CF7E4CFE730DD
:1004900029F1E83059F1E430B1F7809180008062B1
:1004A00080938000D0938B00C0938A0004C084B5F1
:1004B000806884BDC7BDDF91CF911F91089584B539
:1004C000806284BDC8BDF7CF809180008068809332
:1004D0008000D0938900C0938800EDCF8091B00058
:1004E00080688093B000C093B300E5CF8091B000E6
:1004F00080628093B000C093B400DDCF8E3008F0EE
:100500008E508770806480937C0080917A00806434
:1005100080937A0080917A0086FDFCCF80917800EC
:100520009091790008953FB7F8948091D10190910E
:10053000D201A091D301B091D40126B5A89B05C0EA
:100540002F3F19F00196A11DB11D3FBFBA2FA92F52
:10055000982F8827BC01CD01620F711D811D911D4F
:1005600042E0660F771F881F991F4A95D1F70895BB
:100570002FB7F8946091CD017091CE018091CF0199
:100580009091D0012FBF0895FC0101900020E9F760
:100590003197AF01481B590BBC0183EA96E00C94DC
:1005A0008C008F929F92AF92BF920F931F93CF9325
:1005B000DF93CDB7DEB7A1970FB6F894DEBF0FBEBD
:1005C000CDBF19A2423008F44AE08E010F5D1F4FE3
:1005D000842E912CB12CA12CA50194010E946E07B0
:1005E000E62FB901CA01EA30F4F4E05DD801EE93D8
:1005F0008D01232B242B252B79F790E080E0109799
:1006000019F0CD010E94C402A1960FB6F894DEBF86
:100610000FBECDBFDF91CF911F910F91BF90AF90D3
:100620009F908F900895E95CE1CFCF92DF92EF9297
:10063000FF920F931F93CF93DF937C018C01000FE8
:10064000111FF801EB52FE4F808191818436910594
:1006500041F489E291E00E94C40289E391E00E94A2
:10066000C402C8018A539E4F6C01FC01C081D18134
:100670000E94B802FE01EE0FFF1FEC0FFD1FEE0DF2
:10068000FF1DEE0FFF1FEE0FFF1FE451FE4F6083B3
:10069000718382839383F701EB51FE4F81E0808366
:1006A0002196F601D183C083F801EB52FE4F808181
:1006B0009181019691838083C436D10519F4F601A6
:1006C00011821082DF91CF911F910F91FF90EF90D7
:1006D000DF90CF900895CF92DF92EF92FF92CF9369
:1006E000DF936C01990FEE08FF08F7FE19C06DE269
:1006F00083EA96E00E942C01EC0166277727CB0164
:100700006C197D098E099F094AE00E94D1028C0F65
:100710009D1FDF91CF91FF90EF90DF90CF900895D4
:100720004AE0C701B601DF91CF91FF90EF90DF90D3
:10073000CF900C94D1021F920F920FB60F921124FA
:100740002F933F934F935F936F937F938F939F93D9
:10075000AF93BF93EF93FF9383EA96E00E940A0161
:10076000FF91EF91BF91AF919F918F917F916F9189
:100770005F914F913F912F910F900FBE0F901F905F
:1007800018951F920F920FB60F9211242F938F93EB
:100790009F93EF93FF93E091B306F091B4068081AD
:1007A000E091B906F091BA0682FD1BC0908180915C
:1007B000BC068F5F8F732091BD06821741F0E091D8
:1007C000BC06F0E0ED55F94F958F8093BC06FF9184
:1007D000EF919F918F912F910F900FBE0F901F90CF
:1007E00018958081F4CF1F920F920FB60F921124AB
:1007F0002F933F938F939F93AF93BF938091CD019E
:100800009091CE01A091CF01B091D0013091CC0157
:1008100023E0230F2D3758F50196A11DB11D20931C
:10082000CC018093CD019093CE01A093CF01B093E2
:10083000D0018091D1019091D201A091D301B091CA
:10084000D4010196A11DB11D8093D1019093D201D5
:10085000A093D301B093D401BF91AF919F918F9199
:100860003F912F910F900FBE0F901F90189526E883
:10087000230F0296A11DB11DD2CFCF93DF9300D0DD
:1008800000D000D0CDB7DEB7789484B5826084BD47
:1008900084B5816084BD85B5826085BD85B5816084
:1008A00085BD80916E00816080936E001092810002
:1008B00080918100826080938100809181008160BD
:1008C000809381008091800081608093800080917E
:1008D000B10084608093B1008091B000816080930A
:1008E000B00080917A00846080937A0080917A00D1
:1008F000826080937A0080917A00816080937A0090
:1009000080917A00806880937A001092C100E09113
:10091000B306F091B40682E08083E091AF06F091D7
:10092000B0061082E091B106F091B2068FEC8083A0
:100930001092BB06E091B706F091B80686E080837E
:10094000E091B506F091B606808180618083E091E8
:10095000B506F091B606808188608083E091B50687
:10096000F091B606808180688083E091B506F091B1
:10097000B60680818F7D808362E08CE00E94F0016A
:100980002DE131E03A83298372E0C72ED12CE12C8E
:10099000F12CA981BA818C911296BA83A98361E066
:1009A0000E94F0018CE391E00E94C4024AE0C7017A
:1009B000B6010E94D10289E391E00E94C402BFEF18
:1009C000CB1ADB0AEB0AFB0AEAE0CE16D104E104FB
:1009D000F104F9F68FEF90E09093E4018093E30146
:1009E000EAEBF0E08491E6EAF0E0F491F983E2E9E1
:1009F000F0E0F491FB83FF2389F081110E949901BB
:100A00002B81E22FF0E0EE0FFF1FE458FF4FA5917E
:100A1000B4918C913981382381E009F480E08170B0
:100A20008093A20680E00E947E0290930201809350
:100A3000010181E00E947E029093040180930301F2
:100A400082E00E947E0290930601809305014CE9AA
:100A5000642E46E0742E81E091E09A83898358EEFB
:100A6000C52E51E0D52E8C0173011C821B82D7014B
:100A70008D919C91FC01EE0FFF1FE80FF91F2B8158
:100A80003C81E20FF31FEE0FFF1FEE0FFF1FE4513B
:100A9000FE4FD8018D909C90092C000CAA08BB0831
:100AA00080819181A281B381880D991DAA1DBB1DF2
:100AB0004C015D01E2E38E0E911CA11CB11C0E9451
:100AC000B80286169706A806B90608F07AC0D601BD
:100AD0008C91882309F475C0EB81FC81EE0FFF1F18
:100AE000EF5DFE4F70E060E080810E94210270E0C7
:100AF00060E082E00E94210280E591E00E94C40251
:100B00008B819C810E946B038AEB91E00E94C4025E
:100B10000E94B8024AE00E94D10283E691E00E945E
:100B2000C402D701ED91FC91CF01880F991FE80F06
:100B3000F91F2B813C81E20FF31FEE0FFF1FEE0F19
:100B4000FF1FE451FE4F60817181828193814AE0F1
:100B50000E94D1028FE791E00E94C402D8018D91DA
:100B60009C910E946B0380E991E00E94C402F7010E
:100B700080819181FC01EE0FFF1FE80FF91F2B818F
:100B80003C81E20FF31FEE0FFF1FEE0FFF1FE4513A
:100B9000FE4FD8016D917C91072E000C880B990BAC
:100BA00080809180A280B380680D791D8A1D9B1D75
:100BB0004AE00E94D10289E391E00E94C402F6015A
:100BC00010822B813C812F5F3F4F3C832B8332E08F
:100BD000E30EF11C0E5F1F4F4FEFC41AD40A8B8136
:100BE0009C81049709F043CF45EE442E41E0542EFA
:100BF00055ED252E51E0352EA1E0B1E0BC83AB834D
:100C0000C12CD12C76018601EB81FC8181909190E1
:100C1000FC83EB83D301ED91FC91CF01880F991FE9
:100C2000E80FF91FEC0DFD1DEE0FFF1FEE0FFF1F6C
:100C3000E451FE4F092C000CAA08BB088081918169
:100C4000A281B381880E991EAA1EBB1E0E94B80203
:100C500086169706A806B90608F06FC0F2018081D3
:100C6000882309F46AC08C2D0E947E020B970CF435
:100C700042C06091E3017091E4019601220F331F9D
:100C80003E832D83F901E552FE4F71836083F901A4
:100C9000E75EFE4F80810E942102F601E851FE4F7F
:100CA00031E030833093EB018D819E818F5D9E4FCB
:100CB0009E838D836FEF70E0DC018C910E94210296
:100CC0006FEF70E082E00E94210285EA91E00E94CD
:100CD000C4024AE0C701B6010E94D10289EB91E04B
:100CE0000E94C4020E94B8024AE00E94D10289E335
:100CF00091E00E94C402F10180819181019791836A
:100D00008083D3012D913C9111972F5F3F4F243663
:100D1000310509F4B2C02D933C93892B11F4D20113
:100D20001C9281E090E00115110529F001301105B8
:100D300021F482E090E00E941503B2E06B0E711C7A
:100D4000EFEF4E1A5E0AF2E02F0E311C2FEFC21A9F
:100D5000D20AE20AF20A33E0C316D104E104F10434
:100D600009F051CF8091A20690910001891799F066
:100D7000811111C090E080E00E9415038091E30191
:100D80009091E4019093E2018093E1016FEF70E0B4
:100D900082E00E9421028091A2068093000180914E
:100DA000E3019091E401ABEDB1E0BC83AB83FD01C5
:100DB000A981BA812D913D91BA83A9832A30310549
:100DC00034F420813181232B11F491838083329676
:100DD00029813A812750314059F709E111E0EB812F
:100DE000FC8180819181009719F00F979183808316
:100DF0008B819C8102969C838B83D8018C910E5FA2
:100E00001F4F608171810E942102E3EEF1E02B818E
:100E10003C81E217F30719F70E9493024B015C0132
:100E20008AE0C82ED12CE12CF12C0E949302681983
:100E300079098A099B09683E734081059105A8F3E9
:100E400031E0C31AD108E108F10848EE840E43E00E
:100E5000941EA11CB11CC114D104E104F10429F7B2
:100E6000E0E0F0E0EF2B09F4BBCD0E94F600882310
:100E700009F4B6CD0E940000B3CDF30111821082B7
:100E80004CCFE3EAF6E01382128288EE93E0A0E012
:100E9000B0E084839583A683B7838BE091E0918350
:100EA000808385EC90E09587848784EC90E0978739
:100EB000868780EC90E0918B808B81EC90E0938B27
:100EC000828B82EC90E0958B848B86EC90E0978B04
:100ED000868B118E128E138E148E0895A1E21A2E17
:100EE000AA1BBB1BFD010DC0AA1FBB1FEE1FFF1FCE
:100EF000A217B307E407F50720F0A21BB30BE40B1E
:100F0000F50B661F771F881F991F1A9469F7609564
:100F10007095809590959B01AC01BD01CF0108951E
:100F2000EE0FFF1F0590F491E02D0994F894FFCF88
:100F300001E803E803DC05000000002C018C00B987
:100F4000007901EA00C800DC000300050006000982
:100F50000004000700080002004275666665722002
:100F600069732066756C6C21000D0A0050696E2053
:100F700073657420746F204F75747075743A200017
:100F800064697361626C696E67206F7574707574E3
:100F90003A20002062656361757365207472696729
:100FA0006765722071756575652069733A20002C3C
:100FB00020616E642064656C61792069733A200059
:100FC0002C20616E642074686569722073756D20D1
:100FD00069733A200074726967676572696E672089
:100FE0006F75747075743A20002C206174207469D8
:060FF0006D653A200000CF
:00000001FF
