:100000000C9462000C948A000C948A000C948A0070
:100010000C948A000C948A000C948A000C948A0038
:100020000C948A000C948A000C948A000C948A0028
:100030000C948A000C948A000C948A000C948A0018
:100040000C9479030C948A000C9447030C942103BC
:100050000C948A000C948A000C948A000C948A00F8
:100060000C948A000C948A000000000024002700F1
:100070002A0000000000250028002B0000000000DE
:1000800023002600290004040404040404040202DA
:100090000202020203030303030301020408102007
:1000A0004080010204081020010204081020000012
:1000B0000008000201000003040700000000000027
:1000C0000000700611241FBECFEFD8E0DEBFCDBF09
:1000D00011E0A0E0B1E0EAE4FDE002C005900D927D
:1000E000AE33B107D9F726E0AEE3B1E001C01D920F
:1000F000AF3BB207E1F710E0C2E6D0E004C02197C1
:10010000FE010E949D06C136D107C9F70E94C303B4
:100110000C94A3060C940000AF92BF92CF92DF9292
:10012000EF92FF920F931F93CF93DF936C017B01AC
:100130008B01040F151FEB015E01AE18BF08C0173D
:10014000D10759F06991D601ED91FC910190F081B0
:10015000E02DC6010995892B79F7C501DF91CF9173
:100160001F910F91FF90EF90DF90CF90BF90AF90D5
:100170000895FC01538D448D252F30E0842F90E0AD
:10018000821B930B541710F0CF9608950197089592
:10019000FC01918D828D981761F0A28DAE0FBF2F5B
:1001A000B11D5D968C91928D9F5F9F73928F90E0B1
:1001B00008958FEF9FEF0895FC01918D828D981720
:1001C00031F0828DE80FF11D858D90E008958FEF5D
:1001D0009FEF0895FC01918D228D892F90E0805C26
:1001E0009F4F821B91098F73992708958DE491E0A9
:1001F0000E94EA0021E0892B09F420E0822F089573
:1002000080E090E0892B29F00E94F60081110C9487
:1002100000000895FC01A48DA80FB92FB11DA35AA9
:10022000BF4F2C91848D90E001968F739927848F16
:10023000A689B7892C93A089B1898C918370806439
:100240008C93938D848D981306C00288F389E02DDA
:1002500080818F7D80830895EF92FF920F931F938B
:10026000CF93DF93EC0181E0888F9B8D8C8D981369
:100270001AC0E889F989808185FF15C09FB7F89475
:10028000EE89FF896083E889F989808183708064C1
:1002900080839FBF81E090E0DF91CF911F910F910C
:1002A000FF90EF900895F62E0B8D10E00F5F1F4F1B
:1002B0000F731127E02E8C8D8E110CC00FB607FC2A
:1002C000FACFE889F989808185FFF5CFCE010E94B8
:1002D0000A01F1CFEB8DEC0FFD2FF11DE35AFF4F1B
:1002E000F0829FB7F8940B8FEA89FB898081806246
:1002F000CFCFCF93DF93EC01888D8823B9F0AA8903
:10030000BB89E889F9898C9185FD03C0808186FDD0
:100310000DC00FB607FCF7CF8C9185FFF2CF80811F
:1003200085FFEDCFCE010E940A01E9CFDF91CF9189
:100330000895833081F028F4813099F08230A9F05B
:1003400008958730A9F08830C9F08430B1F48091E5
:1003500080008F7D03C0809180008F778093800024
:10036000089584B58F7784BD089584B58F7DFBCFC4
:100370008091B0008F778093B00008958091B00095
:100380008F7DF9CFCF93DF93EAEBF0E08491E6EA3B
:10039000F0E0D491E2E9F0E0C491CC23A1F0811126
:1003A0000E949901EC2FF0E0EE0FFF1FE458FF4F81
:1003B000A591B491EC91ED2381E090E009F480E007
:1003C000DF91CF91089580E090E0FACF1F93CF9313
:1003D000DF93282F30E0F901E255FF4F8491F901B6
:1003E000E656FF4FD491F901EA57FF4FC491CC2351
:1003F000A9F0162F81110E949901EC2FF0E0EE0F69
:10040000FF1FEE58FF4FA591B4918FB7F894EC9170
:10041000111108C0D095DE23DC938FBFDF91CF91FF
:100420001F910895DE2BF8CFCF93DF9390E0FC016E
:10043000E656FF4F24918A579F4FFC0184918823F1
:10044000D1F090E0880F991FFC01E859FF4FA5916A
:10045000B491FC01EE58FF4FC591D491623071F414
:100460009FB7F8943C91822F809583238C93E881E9
:100470002E2B28839FBFDF91CF9108958FB7F894DB
:10048000EC912E2B2C938FBFF6CF1F93CF93DF933E
:10049000182FEB0161E00E941402209739F460E00C
:1004A000812FDF91CF911F910C94E601CF3FD105B1
:1004B00011F461E0F5CFE12FF0E0E255FF4FE49158
:1004C000E33031F140F4E130B1F0E230E1F0C03836
:1004D000D1057CF7E4CFE73029F1E83059F1E43079
:1004E000B1F780918000806280938000D0938B0070
:1004F000C0938A0004C084B5806884BDC7BDDF9105
:10050000CF911F91089584B5806284BDC8BDF7CF97
:1005100080918000806880938000D0938900C09390
:100520008800EDCF8091B00080688093B000C093C8
:10053000B300E5CF8091B00080628093B000C0939B
:10054000B400DDCF8E3008F08E50877080648093C9
:100550007C0080917A00806480937A0080917A0098
:1005600086FDFCCF809178009091790008952FB797
:10057000F8946091490170914A0180914B019091EA
:100580004C012FBF0895CF92DF92EF92FF920F930D
:100590001F93CF93DF937C018C01000F111FF80193
:1005A000E651FE4F808191818436910581F44FE0C0
:1005B00050E06AE271E08DE491E00E948C0042E03C
:1005C00050E06AE371E08DE491E00E948C00C80184
:1005D000825C9E4F6C01FC01C081D1810E94B702F8
:1005E000FE01EE0FFF1FEC0FFD1FEE0DFF1DEE0FC6
:1005F000FF1FEE0FFF1FEC50FE4F6083718382835D
:100600009383F701EF50FE4F81E080832196F6013E
:10061000D183C083F801E651FE4F8081918101961C
:1006200091838083C436D10519F4F60111821082BA
:10063000DF91CF911F910F91FF90EF90DF90CF90BE
:1006400008951F920F920FB60F9211242F933F938C
:100650004F935F936F937F938F939F93AF93BF93CA
:10066000EF93FF938DE491E00E940A01FF91EF91D7
:10067000BF91AF919F918F917F916F915F914F91BA
:100680003F912F910F900FBE0F901F9018951F92C2
:100690000F920FB60F9211242F938F939F93EF9386
:1006A000FF93E0915D01F0915E018081E091630133
:1006B000F091640182FD1BC09081809166018F5F83
:1006C0008F7320916701821741F0E0916601F0E09D
:1006D000E35BFE4F958F80936601FF91EF919F91B1
:1006E0008F912F910F900FBE0F901F9018958081C2
:1006F000F4CF1F920F920FB60F9211242F933F93B6
:100700008F939F93AF93BF938091490190914A013A
:10071000A0914B01B0914C013091480123E0230F8F
:100720002D3758F50196A11DB11D209348018093E6
:10073000490190934A01A0934B01B0934C018091E1
:10074000440190914501A0914601B0914701019665
:10075000A11DB11D8093440190934501A0934601D2
:10076000B0934701BF91AF919F918F913F912F918E
:100770000F900FBE0F901F90189526E8230F02963A
:10078000A11DB11DD2CFCF93DF9300D000D0CDB744
:10079000DEB7789484B5826084BD84B5816084BD01
:1007A00085B5826085BD85B5816085BD80916E000F
:1007B000816080936E001092810080918100826040
:1007C000809381008091810081608093810080917D
:1007D00080008160809380008091B100846080936C
:1007E000B1008091B00081608093B00080917A0068
:1007F000846080937A0080917A00826080937A008E
:1008000080917A00816080937A0080917A0080687C
:1008100080937A001092C100E0915D01F0915E0139
:1008200082E08083E0915901F0915A011082E091B9
:100830005B01F0915C018FEC808310926501E09187
:100840006101F091620186E08083E0915F01F091A7
:100850006001808180618083E0915F01F09160019F
:10086000808188608083E0915F01F09160018081E8
:1008700080688083E0915F01F091600180818F7DCD
:10088000808362E08CE00E94140261E08DE00E94AF
:1008900014022EE131E03A832983A981BA818C9137
:1008A0001296BA83A98361E00E941402E981FA8159
:1008B000EE52F14091F78FEF90E09093BC06809359
:1008C000BB06332433940E94C20121E0892B09F432
:1008D00020E02093BE0680E00E94A20290930301D4
:1008E0008093020181E00E94A2029093050180930F
:1008F000040182E00E94A202909307018093060106
:1009000086E00E94A202843F91400CF0E1C1309247
:10091000BD068091BD0690910101891719F18823C8
:1009200009F190E080E00E94C3028091BB069091A3
:10093000BC069093BA068093B9068091B2068111E5
:1009400007C06FEF70E082E00E9445023092B1066E
:100950000E94B7026093AA067093AB068093AC0620
:100960009093AD068091BD068093010184EA96E0E4
:100970009C838B83E2E0CE2EE1E0DE2EFEEAEF2EBA
:10098000F6E0FF2E36012C0110E000E0D201ED91DF
:10099000FD912D01D3014D915D913D01CF01880F56
:1009A000991FE80FF91FE00FF11FEE0FFF1FEE0F69
:1009B000FF1FEC50FE4F80809180A280B380840E98
:1009C000951EA11CB11CB2E38B0E911CA11CB11C85
:1009D0000E94B70286169706A806B90680F4F701AA
:1009E0008081882361F0F801EE0FFF1FEE5DFE4F5E
:1009F00070E060E080810E944502D7011C920F5F89
:100A00001F4FBFEFEB1AFB0A0330110509F0BECFF1
:100A10008091A4069091A5062CE0289FF001299FC3
:100A2000F00D1124EC50FE4F80809180A280B380A5
:100A300032E3830E911CA11CB11C0E94B7028616E2
:100A40009706A806B90658F48091B106882339F0B4
:100A500070E060E082E00E9445021092B10682E000
:100A600091E09A83898310E000E0AB81BC81AD9076
:100A7000BC90E981FA8181919191FA83E983F50132
:100A8000EE0FFF1FEA0DFB1DE00FF11FEE0FFF1F22
:100A9000EE0FFF1FEC50FE4F40805180628073804C
:100AA000480E591E611C711C0E94B702461657065B
:100AB0006806790608F058C098012F503E4F49014A
:100AC000D9018C91882309F44FC0802F0E94A20283
:100AD0007801EE0CFF1C0B971CF16091BB06709126
:100AE000BC06F701ED54F94F71836083F701E65EB0
:100AF000FE4F80810E944502F801E255F94FB1E0B6
:100B0000B0833092B1066FEF70E0F701EE5DFE4FFB
:100B100080810E9445026FEF70E082E00E944502F2
:100B2000F701E651FE4F8081918101979183808387
:100B3000EFEFAE1ABE0AF4E6AF16B10409F4CBC06B
:100B4000AB81BC81AD92BC92892B11F4D4011C9273
:100B500081E090E00115110529F00130110521F423
:100B600082E090E00E94C3020F5F1F4FEB81FC8187
:100B70003296FC83EB830330110509F076CF809128
:100B8000BE0690910001891719F1811121C090E0F2
:100B900080E00E94C3028091BB069091BC069093B6
:100BA000BA068093B9068091B206811107C06FEF33
:100BB00070E082E00E9445023092B1060E94B702C6
:100BC0006093AA067093AB068093AC069093AD0633
:100BD0008091BE06809300018090AA069090AB069B
:100BE000A090AC06B090AD06F8EE8F0EF3E09F1E1D
:100BF000A11CB11C0E94B70286169706A806B9066A
:100C0000C8F42091B20629830E94C2012091F0010C
:100C10002817190679F00E94C20121E0009709F413
:100C200020E02093F001892B29F4398181E03827D5
:100C30003093B2066091B2068DE00E94E601809189
:100C4000BB069091BC06A3EBB6E0BA83A983FD0175
:100C5000D6012D913D916D012A30310530F420816E
:100C60003181232B11F4918380833296B8E0CB1627
:100C7000B1E0DB0669F70AE111E0E981FA818081E0
:100C80009181009719F00F979183808329813A8190
:100C90002E5F3F4F3A832983D8018C910E5F1F4FFF
:100CA000608171810E944502EBEBF6E029813A8177
:100CB000E217F30711F780E090E0892B09F403CEE7
:100CC0000E94F600882309F4FECD0E940000FBCDAF
:100CD0001092BD061ECEEB81FC811182108234CFB2
:100CE000EDE4F1E01382128288EE93E0A0E0B0E040
:100CF00084839583A683B7838CE091E0918380837E
:100D000085EC90E09587848784EC90E097878687D0
:100D100080EC90E0918B808B81EC90E0938B828BC8
:100D200082EC90E0958B848B86EC90E0978B868BA1
:100D3000118E128E138E148E0895EE0FFF1F0590E4
:0A0D4000F491E02D0994F894FFCF20
:100D4A000101E803E803DC05000000002C018C0027
:100D5A00B9007901EA00C800DC00030005000600BA
:100D6A000900040007000800020042756666657201
:0E0D7A002069732066756C6C21000D0A000064
:00000001FF
