:100000000C9462000C948A000C948A000C948A0070
:100010000C948A000C948A000C948A000C948A0038
:100020000C948A000C948A000C948A000C948A0028
:100030000C948A000C948A000C948A000C948A0018
:100040000C94A3030C948A000C9471030C944B033E
:100050000C948A000C948A000C948A000C948A00F8
:100060000C948A000C948A000000000024002700F1
:100070002A0000000000250028002B0000000000DE
:1000800023002600290004040404040404040202DA
:100090000202020203030303030301020408102007
:1000A0004080010204081020010204081020000012
:1000B0000008000201000003040700000000000027
:1000C0000000870611241FBECFEFD8E0DEBFCDBFF2
:1000D00011E0A0E0B1E0E8E7FDE002C005900D927C
:1000E000A235B107D9F726E0A2E5B1E001C01D9223
:1000F000A23DB207E1F710E0C2E6D0E004C02197CC
:10010000FE010E94B406C136D107C9F70E94ED0373
:100110000C94BA060C940000AF92BF92CF92DF927B
:10012000EF92FF920F931F93CF93DF936C017B01AC
:100130008B01040F151FEB015E01AE18BF08C0173D
:10014000D10759F06991D601ED91FC910190F081B0
:10015000E02DC6010995892B79F7C501DF91CF9173
:100160001F910F91FF90EF90DF90CF90BF90AF90D5
:100170000895FC01538D448D252F30E0842F90E0AD
:10018000821B930B541710F0CF9608950197089592
:10019000FC01918D828D981761F0A28DAE0FBF2F5B
:1001A000B11D5D968C91928D9F5F9F73928F90E0B1
:1001B00008958FEF9FEF0895FC01918D828D981720
:1001C00031F0828DE80FF11D858D90E008958FEF5D
:1001D0009FEF0895FC01918D228D892F90E0805C26
:1001E0009F4F821B91098F739927089585E396E0AD
:1001F0000E94EA0021E0892B09F420E0822F089573
:1002000080E090E0892B29F00E94F60081110C9487
:1002100000000895FC01A48DA80FB92FB11DA35AA9
:10022000BF4F2C91848D90E001968F739927848F16
:10023000A689B7892C93A089B1898C918370806439
:100240008C93938D848D981306C00288F389E02DDA
:1002500080818F7D80830895EF92FF920F931F938B
:10026000CF93DF93EC0181E0888F9B8D8C8D981369
:100270001AC0E889F989808185FF15C09FB7F89475
:10028000EE89FF896083E889F989808183708064C1
:1002900080839FBF81E090E0DF91CF911F910F910C
:1002A000FF90EF900895F62E0B8D10E00F5F1F4F1B
:1002B0000F731127E02E8C8D8E110CC00FB607FC2A
:1002C000FACFE889F989808185FFF5CFCE010E94B8
:1002D0000A01F1CFEB8DEC0FFD2FF11DE35AFF4F1B
:1002E000F0829FB7F8940B8FEA89FB898081806246
:1002F000CFCFCF93DF93EC01888D8823B9F0AA8903
:10030000BB89E889F9898C9185FD03C0808186FDD0
:100310000DC00FB607FCF7CF8C9185FFF2CF80811F
:1003200085FFEDCFCE010E940A01E9CFDF91CF9189
:100330000895833081F028F4813099F08230A9F05B
:1003400008958730A9F08830C9F08430B1F48091E5
:1003500080008F7D03C0809180008F778093800024
:10036000089584B58F7784BD089584B58F7DFBCFC4
:100370008091B0008F778093B00008958091B00095
:100380008F7DF9CFCF93DF93EAEBF0E08491E6EA3B
:10039000F0E0D491E2E9F0E0C491CC23A1F0811126
:1003A0000E949901EC2FF0E0EE0FFF1FE458FF4F81
:1003B000A591B491EC91ED2381E090E009F480E007
:1003C000DF91CF91089580E090E0FACF1F93CF9313
:1003D000DF93282F30E0F901E255FF4F8491F901B6
:1003E000E656FF4FD491F901EA57FF4FC491CC2351
:1003F000A9F0162F81110E949901EC2FF0E0EE0F69
:10040000FF1FEE58FF4FA591B4918FB7F894EC9170
:10041000111108C0D095DE23DC938FBFDF91CF91FF
:100420001F910895DE2BF8CFCF93DF9390E0FC016E
:10043000E656FF4F24918A579F4FFC0184918823F1
:10044000D1F090E0880F991FFC01E859FF4FA5916A
:10045000B491FC01EE58FF4FC591D491623071F414
:100460009FB7F8943C91822F809583238C93E881E9
:100470002E2B28839FBFDF91CF9108958FB7F894DB
:10048000EC912E2B2C938FBFF6CF1F93CF93DF933E
:10049000182FEB0161E00E941402209739F460E00C
:1004A000812FDF91CF911F910C94E601CF3FD105B1
:1004B00011F461E0F5CFE12FF0E0E255FF4FE49158
:1004C000E33031F140F4E130B1F0E230E1F0C03836
:1004D000D1057CF7E4CFE73029F1E83059F1E43079
:1004E000B1F780918000806280938000D0938B0070
:1004F000C0938A0004C084B5806884BDC7BDDF9105
:10050000CF911F91089584B5806284BDC8BDF7CF97
:1005100080918000806880938000D0938900C09390
:100520008800EDCF8091B00080688093B000C093C8
:10053000B300E5CF8091B00080628093B000C0939B
:10054000B400DDCF8E3008F08E50877080648093C9
:100550007C0080917A00806480937A0080917A0098
:1005600086FDFCCF809178009091790008953FB787
:10057000F89480915D0190915E01A0915F01B0912E
:10058000600126B5A89B05C02F3F19F00196A11D5B
:10059000B11D3FBFBA2FA92F982F8827BC01CD01CD
:1005A000620F711D811D911D42E0660F771F881F2C
:1005B000991F4A95D1F708952FB7F8946091590182
:1005C00070915A0180915B0190915C012FBF089559
:1005D000FC0101900020E9F73197AF01481B590B4E
:1005E000BC0185E396E00C948C00CF92DF92EF92F1
:1005F000FF920F931F93CF93DF937C018C01000F29
:10060000111FF801EF59FE4F8081918184369105C9
:1006100041F489E291E00E94E80289E391E00E94BE
:10062000E802C8018E5A9E4F6C01FC01C081D18145
:100630000E94DC02FE01EE0FFF1FEC0FFD1FEE0D0E
:10064000FF1DEE0FFF1FEE0FFF1FE258FE4F6083EE
:10065000718382839383F701E958FE4F81E08083A1
:100660002196F601D183C083F801EF59FE4F8081B6
:100670009181019691838083C436D10519F4F601E6
:1006800011821082DF91CF911F910F91FF90EF9017
:10069000DF90CF9008951F920F920FB60F92112402
:1006A0002F933F934F935F936F937F938F939F937A
:1006B000AF93BF93EF93FF9385E396E00E940A0107
:1006C000FF91EF91BF91AF919F918F917F916F912A
:1006D0005F914F913F912F910F900FBE0F901F9000
:1006E00018951F920F920FB60F9211242F938F938C
:1006F0009F93EF93FF93E0914506F091460680812A
:10070000E0914B06F0914C0682FD1BC090818091D8
:100710004E068F5F8F7320914F06821741F0E09154
:100720004E06F0E0EB5CF94F958F80934E06FF91FB
:10073000EF919F918F912F910F900FBE0F901F906F
:1007400018958081F4CF1F920F920FB60F9211244B
:100750002F933F938F939F93AF93BF9380915901B2
:1007600090915A01A0915B01B0915C0130915801C8
:1007700023E0230F2D3758F50196A11DB11D2093BD
:1007800058018093590190935A01A0935B01B09353
:100790005C0180915D0190915E01A0915F01B0913B
:1007A00060010196A11DB11D80935D0190935E01D2
:1007B000A0935F01B0936001BF91AF919F918F9122
:1007C0003F912F910F900FBE0F901F90189526E824
:1007D000230F0296A11DB11DD2CFCF93DF93CDB7CA
:1007E000DEB7A1970FB6F894DEBF0FBECDBF7894E9
:1007F00084B5826084BD84B5816084BD85B5826026
:1008000085BD85B5816085BD80916E0081608093D6
:100810006E0010928100809181008260809381003F
:10082000809181008160809381008091800081604F
:10083000809380008091B10084608093B1008091AA
:10084000B00081608093B00080917A0084608093D2
:100850007A0080917A00826080937A0080917A0099
:10086000816080937A0080917A00806880937A001A
:100870001092C100E0914506F091460682E0808327
:10088000E0914106F09142061082E0914306F0911A
:1008900044068FEC808310924D06E0914906F0915A
:1008A0004A0686E08083E0914706F0914806808101
:1008B00080618083E0914706F091480680818860DE
:1008C0008083E0914706F0914806808180688083AC
:1008D000E0914706F091480680818F7D808362E039
:1008E0008CE00E94140261E08DE00E9414020DE190
:1008F00011E0D8018C910E5F1F4F61E00E9414023D
:10090000B1E00D321B07A9F78FEF90E090937601CD
:10091000809375010E94C20121E0892B09F420E037
:100920002093340680E00E94A202909302018093FB
:10093000010181E00E94A2029093040180930301CF
:1009400082E00E94A20290930601809305010EE2CC
:1009500016E0B1E0AB2EB1E0BB2E8AE7C82E81E0F5
:10096000D82E15014801F12CE12CF401219131918F
:100970004F01D1018D919D911D01F901EE0FFF1FD6
:10098000E20FF31FEE0DFF1DEE0FFF1FEE0FFF1F17
:10099000E258FE4F4080518062807380480E591E9D
:1009A000611C711CB2E34B0E511C611C711C0E9436
:1009B000DC02461657066806790680F4F601808147
:1009C000882361F0F701EE0FFF1FEF5DFE4F70E02F
:1009D00060E080810E944502D6011C92BFEFEB1AB5
:1009E000FB0AEFEFCE1ADE0AF3E0EF16F10409F08E
:1009F000BCCF80912E0690912F062CE0289FF0010D
:100A0000299FF00D1124E258FE4FC080D180E28072
:100A1000F38082E3C80ED11CE11CF11C0E94DC02B1
:100A2000C616D706E806F90658F480917D0188239A
:100A300039F070E060E082E00E94450210927D0192
:100A400051E0252E51E0352EF12CE12CD8018D906E
:100A50009C90F101819191911F01F401EE0FFF1F14
:100A6000E80DF91DEE0DFF1DEE0FFF1FEE0FFF1F2E
:100A7000E258FE4F4080518062807380480E591EBC
:100A8000611C711C0E94DC02461657066806790636
:100A900008F058C0C70189589E4F3C01DC018C9179
:100AA000882309F44FC08E2D0E94A2026701CC0C4E
:100AB000DD1C0B971CF16091750170917601F601B8
:100AC000E359FE4F71836083F601E75EFE4F80813C
:100AD0000E944502F701E658FE4FB1E0B083B093A3
:100AE0007D016FEF70E0F601EF5DFE4F80810E94A7
:100AF00045026FEF70E082E00E944502F601EF5977
:100B0000FE4F80819181019791838083EFEF8E1A50
:100B10009E0AF4E68F16910409F4F5C0D8018D926F
:100B20009C92892B11F4D3011C9281E090E0E11496
:100B3000F10431F0B1E0EB16F10421F482E090E031
:100B40000E94F502EFEFEE1AFE0A0E5F1F4FF3E070
:100B5000EF16F10409F07ACF8091340690910001EC
:100B60008917A9F1811133C090E080E00E94F5025D
:100B70008091750190917601909374018093730137
:100B800080916C0119A2805D88A3CE0180960E949D
:100B9000E80280916C01811110C06FEF70E082E07B
:100BA0000E94450221E020937D018CE391E00E94A8
:100BB000E80289E391E00E94E8020E94DC0260936F
:100BC00068017093690180936A0190936B01809131
:100BD000340680930001C0906801D0906901E090D4
:100BE0006A01F0906B0188EEC80E83E0D81EE11C0C
:100BF000F11C0E94DC02C616D706E806F906B8F416
:100C000010916C010E94C2012091670128171906FA
:100C100071F00E94C20121E0009709F420E02093C6
:100C20006701892B21F491E0192710936C016091E1
:100C30006C018DE00E94E601809175019091760132
:100C40000DE611E0F801D5012D913D915D012A30AD
:100C5000310530F420813181232B11F4918380837D
:100C60003296B7E0AB16B1E0BB0669F799E1E92E21
:100C700091E0F92EF80180819181009719F00F978A
:100C8000918380830E5F1F4FD7018C91B2E0EB0EF2
:100C9000F11C608171810E944502E5E7F1E0E017F7
:100CA000F10741F70E94B7024B015C018AE0C82EB0
:100CB000D12CE12CF12C0E94B702681979098A091C
:100CC0009B09683E734081059105A8F3F1E0CF1AB6
:100CD000D108E108F10828EE820E23E0921EA11C43
:100CE000B11CC114D104E104F10429F7E0E0F0E003
:100CF000EF2B09F40FCE0E94F600882309F40ACEE8
:100D00000E94000007CEF801118210820ACFE5E3AD
:100D1000F6E01382128288EE93E0A0E0B0E08483D4
:100D20009583A683B7838BE091E09183808385ECE4
:100D300090E09587848784EC90E09787868780ECA5
:100D400090E0918B808B81EC90E0938B828B82EC96
:100D500090E0958B848B86EC90E0978B868B118E40
:100D6000128E138E148E0895EE0FFF1F0590F491CE
:080D7000E02D0994F894FFCF77
:100D780001E803E803DC05000000002C018C00B941
:100D8800007901EA00C800DC00030005000600093C
:100D980000040007000800020042756666657220BC
:100DA80069732066756C6C21000D0A002C20616E39
:100DB8006474726967676572696E672066697273C1
:020DC8007400B5
:00000001FF
