:100000000C9462000C948A000C948A000C948A0070
:100010000C948A000C948A000C948A000C948A0038
:100020000C948A000C948A000C948A000C948A0028
:100030000C948A000C948A000C948A000C948A0018
:100040000C9470030C948A000C943E030C941803D7
:100050000C948A000C948A000C948A000C948A00F8
:100060000C948A000C948A000000000024002700F1
:100070002A0000000000250028002B0000000000DE
:1000800023002600290004040404040404040202DA
:100090000202020203030303030301020408102007
:1000A0004080010204081020010204081020000012
:1000B0000008000201000003040700000000000027
:1000C0000000B70511241FBECFEFD8E0DEBFCDBFC3
:1000D00011E0A0E0B1E0E8EDFBE002C005900D9278
:1000E000AC33B107D9F726E0ACE3B1E001C01D9213
:1000F000A23BB207E1F710E0C2E6D0E004C02197CE
:10010000FE010E94E405C136D107C9F70E94BA0377
:100110000C94EA050C940000AF92BF92CF92DF924C
:10012000EF92FF920F931F93CF93DF936C017B01AC
:100130008B01040F151FEB015E01AE18BF08C0173D
:10014000D10759F06991D601ED91FC910190F081B0
:10015000E02DC6010995892B79F7C501DF91CF9173
:100160001F910F91FF90EF90DF90CF90BF90AF90D5
:100170000895FC01538D448D252F30E0842F90E0AD
:10018000821B930B541710F0CF9608950197089592
:10019000FC01918D828D981761F0A28DAE0FBF2F5B
:1001A000B11D5D968C91928D9F5F9F73928F90E0B1
:1001B00008958FEF9FEF0895FC01918D828D981720
:1001C00031F0828DE80FF11D858D90E008958FEF5D
:1001D0009FEF0895FC01918D228D892F90E0805C26
:1001E0009F4F821B91098F739927089587E491E0AF
:1001F0000E94EA0021E0892B09F420E0822F089573
:1002000080E090E0892B29F00E94F60081110C9487
:1002100000000895FC01A48DA80FB92FB11DA35AA9
:10022000BF4F2C91848D90E001968F739927848F16
:10023000A689B7892C93A089B1898C918370806439
:100240008C93938D848D981306C00288F389E02DDA
:1002500080818F7D80830895EF92FF920F931F938B
:10026000CF93DF93EC0181E0888F9B8D8C8D981369
:100270001AC0E889F989808185FF15C09FB7F89475
:10028000EE89FF896083E889F989808183708064C1
:1002900080839FBF81E090E0DF91CF911F910F910C
:1002A000FF90EF900895F62E0B8D10E00F5F1F4F1B
:1002B0000F731127E02E8C8D8E110CC00FB607FC2A
:1002C000FACFE889F989808185FFF5CFCE010E94B8
:1002D0000A01F1CFEB8DEC0FFD2FF11DE35AFF4F1B
:1002E000F0829FB7F8940B8FEA89FB898081806246
:1002F000CFCFCF93DF93EC01888D8823B9F0AA8903
:10030000BB89E889F9898C9185FD03C0808186FDD0
:100310000DC00FB607FCF7CF8C9185FFF2CF80811F
:1003200085FFEDCFCE010E940A01E9CFDF91CF9189
:100330000895833081F028F4813099F08230A9F05B
:1003400008958730A9F08830C9F08430B1F48091E5
:1003500080008F7D03C0809180008F778093800024
:10036000089584B58F7784BD089584B58F7DFBCFC4
:100370008091B0008F778093B00008958091B00095
:100380008F7DF9CF1F93CF93DF93282F30E0F901B2
:10039000E255FF4F8491F901E656FF4FD491F901E0
:1003A000EA57FF4FC491CC23A9F0162F81110E9468
:1003B0009901EC2FF0E0EE0FFF1FEE58FF4FA591D3
:1003C000B4918FB7F894EC91111108C0D095DE2349
:1003D000DC938FBFDF91CF911F910895DE2BF8CF73
:1003E000CF93DF9390E0FC01E656FF4F24918A57AC
:1003F0009F4FFC0184918823D1F090E0880F991FD2
:10040000FC01E859FF4FA591B491FC01EE58FF4F54
:10041000C591D491623071F49FB7F8943C91822FCA
:10042000809583238C93E8812E2B28839FBFDF91B7
:10043000CF9108958FB7F894EC912E2B2C938FBF0A
:10044000F6CF1F93CF93DF93182FEB0161E00E944B
:10045000F001209739F460E0812FDF91CF911F9157
:100460000C94C201CF3FD10511F461E0F5CFE12F2B
:10047000F0E0E255FF4FE491E33031F140F4E13038
:10048000B1F0E230E1F0C038D1057CF7E4CFE730DD
:1004900029F1E83059F1E430B1F7809180008062B1
:1004A00080938000D0938B00C0938A0004C084B5F1
:1004B000806884BDC7BDDF91CF911F91089584B539
:1004C000806284BDC8BDF7CF809180008068809332
:1004D0008000D0938900C0938800EDCF8091B00058
:1004E00080688093B000C093B300E5CF8091B000E6
:1004F00080628093B000C093B400DDCF8E3008F0EE
:100500008E508770806480937C0080917A00806434
:1005100080937A0080917A0086FDFCCF80917800EC
:100520009091790008953FB7F8948091430190919C
:100530004401A0914501B091460126B5A89B05C094
:100540002F3F19F00196A11DB11D3FBFBA2FA92F52
:10055000982F8827BC01CD01620F711D811D911D4F
:1005600042E0660F771F881F991F4A95D1F70895BB
:100570000F931F93CF93DF938C01EC01CC0FDD1F02
:10058000FE01E851FE4F808191818436910581F40E
:100590004FE050E069E271E087E491E00E948C0056
:1005A00042E050E069E371E087E491E00E948C0052
:1005B000DE01A45CBE4F8D919C9111972FB7F894EA
:1005C0004091E4015091E5016091E6017091E701ED
:1005D0002FBFFC01EE0FFF1FE80FF91FE00FF11F07
:1005E000EE0FFF1FEE0FFF1FE550FE4F40835183BC
:1005F00062837383F801E850FE4F81E080838D9120
:100600009C911197019611969C938E93C851DE4F41
:10061000288139812F5F3F4F3983288384369105A4
:1006200011F41D921C92DF91CF911F910F910895AB
:100630001F920F920FB60F9211242F933F934F9357
:100640005F936F937F938F939F93AF93BF93EF933A
:10065000FF9387E491E00E940A01FF91EF91BF911F
:10066000AF919F918F917F916F915F914F913F914A
:100670002F910F900FBE0F901F9018951F920F9201
:100680000FB60F9211242F938F939F93EF93FF93A5
:10069000E0915701F09158018081E0915D01F09166
:1006A0005E0182FD1BC09081809160018F5F8F731E
:1006B00020916101821741F0E0916001F0E0E95B77
:1006C000FE4F958F80936001FF91EF919F918F91E5
:1006D0002F910F900FBE0F901F9018958081F4CF2F
:1006E0001F920F920FB60F9211242F933F938F9367
:1006F0009F93AF93BF938091E4019091E501A09106
:10070000E601B091E7013091420123E0230F2D373C
:1007100058F50196A11DB11D209342018093E4017B
:100720009093E501A093E601B093E7018091430126
:1007300090914401A0914501B09146010196A11DFF
:10074000B11D8093430190934401A0934501B09360
:100750004601BF91AF919F918F913F912F910F9043
:100760000FBE0F901F90189526E8230F0296A11D2B
:10077000B11DD2CF789484B5826084BD84B5816088
:1007800084BD85B5826085BD85B5816085BD80915C
:100790006E00816080936E001092810080918100D4
:1007A00082608093810080918100816080938100CC
:1007B000809180008160809380008091B10084608E
:1007C0008093B1008091B00081608093B0008091EF
:1007D0007A00846080937A0080917A0082608093AE
:1007E0007A0080917A00816080937A0080917A000B
:1007F000806880937A001092C100E0915701F091D7
:10080000580182E08083E0915301F09154011082FD
:10081000E0915501F09156018FEC808310925F01B9
:10082000E0915B01F0915C0186E08083E0915901E9
:10083000F0915A01808180618083E0915901F091AB
:100840005A01808188608083E0915901F0915A01BA
:10085000808180688083E0915901F0915A01808104
:100860008F7D808362E08CE00E94F00161E083E094
:100870000E94F00161E085E00E94F00161E086E005
:100880000E94F00161E08DE00E94F0018FEF90E0A6
:100890009093F7018093F601E6EA2E2EE0E03E2EDB
:1008A000F2E94F2EF0E05F2EA0E06A2EA0E07A2E53
:1008B000EAEBF0E08491F101D491F201C491CC23F0
:1008C00079F081110E949901EC2FF0E0EE0FFF1FEB
:1008D000E458FF4FA591B4918C91D82381E009F49D
:1008E00080E081708093B10680E00E947E02909348
:1008F00002018093010181E00E947E029093040135
:100900008093030182E00E947E029093060180930F
:1009100005010BEA16E061E0E62E61E0F62E6701C4
:10092000D0E0C0E0D6012D913D916D01D801ED914F
:10093000FC91CF01880F991FE80FF91FEC0FFD1FE5
:10094000EE0FFF1FEE0FFF1FE550FE4F032E000CB2
:10095000440B550B80819181A281B381820F931F3B
:10096000A41FB51F6FB7F8948090E4019090E50143
:10097000A090E601B090E7016FBF88159905AA0520
:10098000BB0508F041C0FE01E850FE4F5F018081C9
:100990008823D1F18C2F0E947E024E01880C991C75
:1009A0000B977CF06091F6017091F701F401E25130
:1009B000FE4F71836083F401EF5DFE4F80810E94E2
:1009C0002102F401E851FE4F8081918101979183CA
:1009D0008083D8012D913C9111972F5F3F4F243692
:1009E000310509F4B2C02D933C93892B11F4D50144
:1009F0001C9281E090E0209729F0C130D10521F4CC
:100A000082E090E00E94B80221960E5F1F4FC33033
:100A1000D10509F087CF8091B10690910001891727
:100A200071F081110CC090E080E00E94B8028091CA
:100A3000F6019091F7019093F5018093F401809174
:100A4000B106809300018091F6019091F701CEEEFE
:100A5000D1E0FE01D7012D913D917D012A30310574
:100A600034F420813181232B11F4918380833296D9
:100A7000B7E0EB16B1E0FB0669F791E2E92E91E0F1
:100A8000F92E0EEE11E0F80180819181009719F0A6
:100A90000F97918380830E5F1F4FD7018C91B2E037
:100AA000EB0EF11C608171810E942102E1E0063FA2
:100AB0001E0749F709E111E0F12C89919991D801BC
:100AC000EC900E5F1F4F873E910508F042C070E02A
:100AD00060E08E2D0E94210270E060E082E00E94C2
:100AE0002102F394B3E0FB12E8CF0E9493024B0182
:100AF0005C018AE0C82ED12CE12CF12C0E949302DB
:100B0000681979098A099B09683E73408105910536
:100B1000A8F3E1E0CE1AD108E108F108F8EE8F0E53
:100B2000F3E09F1EA11CB11CC114D104E104F10427
:100B300029F76114710409F4BBCE0E94F6008823E2
:100B400009F4B6CE0E940000B3CEF80111821082E3
:100B50004CCF8F2D0E947E020B970CF4B8CF6FEF15
:100B600070E08E2D0E9421026FEF70E0B7CFE7E4B6
:100B7000F1E01382128288EE93E0A0E0B0E084837B
:100B80009583A683B7838BE091E09183808385EC86
:100B900090E09587848784EC90E09787868780EC47
:100BA00090E0918B808B81EC90E0938B828B82EC38
:100BB00090E0958B848B86EC90E0978B868B118EE2
:100BC000128E138E148E0895EE0FFF1F0590F49170
:080BD000E02D0994F894FFCF19
:100BD80001E803E803DC05000000002C018C00B9E3
:100BE800007901EA00C800DC0004000700080002E0
:100BF800000300050006000D004275666665722058
:0C0C080069732066756C6C21000D0A00F9
:00000001FF
